:020000040000fa
:080000000002040000000000f2
:020000040000fa
:100008009a0200009a0200009a0200009a02000078
:100018009a0200009a0200009a0200009a02000068
:100028009a0200009a0200009a020000ee02000004
:100038009a0200009a0200009a0200009a02000048
:100048009a0200009a0200009a0200009a02000038
:100058009a0200009a0200009a0200009a02000028
:100068009a0200009a0200009a02000008030000a9
:100078009a0200009a0200009a0200009a02000008
:100088009a0200009a0200009a0200009a020000f8
:100098009a0200009a0200009a0200009a020000e8
:1000a8009a0200009a0200009a0200009a020000d8
:1000b8009a0200009a0200009a0200009a020000c8
:1000c8009a0200009a0200009a0200009a020000b8
:1000d8009a0200009a0200009a0200009a020000a8
:1000e8009a0200009a0200009a0200009a02000098
:1000f8009a0200009a0200009a0200009a02000088
:100108009a0200009a0200009a0200009a02000077
:100118009a0200009a0200009a0200009a02000067
:100128009a0200009a0200009a0200009a02000057
:100138009a0200009a0200009a0200009a02000047
:100148009a0200009a0200009a0200009a02000037
:100158009a0200009a0200009a0200009a02000027
:100168009a0200009a0200009a0200009a02000017
:100178009a0200009a0200009a0200009a02000007
:100188009a0200009a0200009a0200009a020000f7
:100198009a0200009a0200009a0200009a020000e7
:1001a8009a0200009a0200009a0200009a020000d7
:1001b8009a0200009a0200009a0200009a020000c7
:1001c8009a0200009a0200009a0200009a020000b7
:1001d8009a0200009a0200009a0200009a020000a7
:1001e8009a0200009a0200009a0200009a02000097
:0801f8009a0200009a020000c7
:020000040000fa
:100208009a0200009a0200009a0200009a02000076
:100218009a0200009a0200009a0200009a02000066
:100228009a0200009a0200009a020000ee02000002
:100238009a0200009a0200009a0200009a02000046
:100248009a0200009a0200009a0200009a02000036
:100258009a0200009a0200009a0200009a02000026
:100268009a0200009a0200009a02000008030000a7
:100278009a0200009a0200009a0200009a02000006
:100288009a0200009a0200009a0200009a020000f6
:100298009a0200009a0200009a0200009a020000e6
:1002a8009a0200009a0200009a0200009a020000d6
:1002b8009a0200009a0200009a0200009a020000c6
:1002c8009a0200009a0200009a0200009a020000b6
:1002d8009a0200009a0200009a0200009a020000a6
:1002e8009a0200009a0200009a0200009a02000096
:1002f8009a0200009a0200009a0200009a02000086
:100308009a0200009a0200009a0200009a02000075
:100318009a0200009a0200009a0200009a02000065
:100328009a0200009a0200009a0200009a02000055
:100338009a0200009a0200009a0200009a02000045
:100348009a0200009a0200009a0200009a02000035
:100358009a0200009a0200009a0200009a02000025
:100368009a0200009a0200009a0200009a02000015
:100378009a0200009a0200009a0200009a02000005
:100388009a0200009a0200009a0200009a020000f5
:100398009a0200009a0200009a0200009a020000e5
:1003a8009a0200009a0200009a0200009a020000d5
:1003b8009a0200009a0200009a0200009a020000c5
:1003c8009a0200009a0200009a0200009a020000b5
:1003d8009a0200009a0200009a0200009a020000a5
:1003e8009a0200009a0200009a0200009a02000095
:0803f8009a0200009a020000c5
:020000040000fa
:100400004f8020000e7f22000e01880000000000b7
:10041000000020000000e000020032000001200087
:10042000200288000c000700603b20000100200033
:1004300011000700000020000000e0000200320070
:1004400000000200000000009e0202000000000008
:100450000040da000000fe004440a9000000200037
:100460000000e0000300320000002000a00188002e
:100470004440a80000000600910188008000780038
:100480000000eb0015003700e280400032a0b4000d
:100490009101ba00e280400032a0b4009102ba009b
:1004a000e280400032a0b4000002eb00472bde00e7
:1004b000f507b200602ce10004003a000059eb009f
:1004c0008301e900fdff3e00040037006128e100e0
:1004d000010032000082eb00040007001101ba00a5
:1004e0000200e000e8ff3a00000006003159ba00bf
:1004f0008301e9000c0032002159ba008301e900b0
:10050000080032000400e00003003a00e2804000ee
:1005100032a0b400f5ff370011d9ba008301e90019
:10052000faff3a008100e800e180400032a0b40008
:0c053000000006000040da000000fe00a1
:020000040000fa
:10053c000000fa006b000700750007007000070050
:10054c00810007000100370000000000044080001b
:10055c00050020003600200007002000860f520006
:10056c00878f5a00f8ff3e0004600100030037003b
:10057c00070037000b0037000f003700cde2a90051
:10058c00cdc2a800cda2a800cd82a8000f003700d4
:10059c00cde2a800cdc2a900cda2a800cd82a800b2
:1005ac000a003700cde2a800cdc2a800cda2a90058
:1005bc00cd82a80005003700cde2a800cdc2a8006e
:1005cc00cda2a800cd82a90000000000dfff3700fb
:1005dc00841f78003400f80004002000a401880077
:1005ec000000fa008460a900144080000402e800b6
:1005fc00144088000080fa003400f9004f027800a3
:10060c0000400600849fbe003400f8000400200067
:10061c00a40188000000fa008660a900551680002d
:10062c000402200004826200e00f520002003a0033
:10063c000002eb00144088005516800004022000d4
:10064c0004826200e00f52000b0032001540800063
:10065c00f4042000848f520007003c00044080000a
:10066c000402e80063026200044088000002eb0010
:10067c001440880017003700551680000402200033
:10068c0004826200e00f520012003200154080001c
:10069c00f4042000848f52000e00340004408000cb
:1006ac00e00f520005003a0034002000044088009e
:1006bc000002eb0014408800060037000440800064
:1006cc000402e90063026200044088000002eb00af
:1006dc00144088000080fa003400f9004f02be007c
:1006ec00004006000000fa00c9e2a900c9c2a90036
:1006fc00c9a2a900c982a9000080fa000000060066
:10070c000000fa00c8a2a8000080fa000000060051
:10071c000200fa00f4592000040f78001e02780041
:10072c0014088800240880000440a0000450a00095
:10073c00240888009460a8008460a90005e1a80042
:10074c000080fa00000006000000fa008660a90094
:10075c006360a8009660a8000080fa000000060004
:020000040000fa
:10076c000008000004000000000000000000000071
:020000040000fa
:020000040001f9
:0457f800ad7b000085
:020000040000fa
:020000040001f9
:0457fc003f3f00002b
:00000001FF
